S01700004C6F726152656C61794D6F64756C652E737265631C
S11300000C9408010C946E050C9425010C942501A4
S11300100C9425010C9425010C9425010C942501C4
S11300200C9425010C9425010C9425010C94E003F7
S11300300C9425010C9425010C9425010C942501A4
S11300400C9425010C9463020C945D030C9425011B
S11300500C9494030C9427010C9425010C94250111
S11300600C94BF020C9425010C9425010C942501D9
S11300700C9425010C9425010C9425010C94250164
S11300800C9425010C9425010C9425010C94250154
S11300900C9425010C9425010C9425010C94AE02BA
S11300A00C940E030C9425010C9425010C94250149
S11300B00C94250108000000BE922449123EABAA0C
S11300C0AA2ABECDCCCC4C3E00000080BEABAAAA6E
S11300D0AA3E00000000BF000000803F00000000B6
S11300E000084178D3BB4387D1133D190E3CC3BDEF
S11300F04282AD2B3E68EC8276BED98FE1A93E4C9C
S113010080EFFFBE01C4FF7F3F00000000006E616E
S11301106E00696E660000407A10F35A00A0724EB9
S113012018090010A5D4E80000E87648170000E498
S11301300B54020000CA9A3B000000E1F5050000E0
S113014080969800000040420F000000A086010045
S11301500000102700000000E80300000000640015
S1130160000000000A000000000001000000000080
S11301702C76D888DC674F0823DFC1DFAE59E1B1A4
S1130180B796E5E3E453C63AE651997696E8E6C2B3
S11301908426EB898C9B62ED407C6FFCEFBC9C9FBA
S11301A040F2BAA56FA5F490055A2AF75C936B6CDC
S11301B0F9676DC11BFCE0E40D47FEF520E6B500D0
S11301C0D0ED902E0300943577050080841E08003E
S11301D000204E0A000000C80C333333330F986EEE
S11301E012831141EF8D2114893BE65516CFFEE6AB
S11301F0DB18D1844B381BF77C1D901DA4BBE42471
S1130200203284725E228100C9F124ECA1E53D27ED
S113021011241FBECFEFD8E0DEBFCDBF11E0A0E0B8
S1130220B1E0E2EAFFE102C005900D92A636B10703
S1130230D9F723E0A6E6B1E001C01D92AC30B207C5
S1130240E1F70E9408040C94CF0F0C9400001F9255
S11302500F920FB60F9211248F9381E080930001C7
S11302608F910F900FBE0F901F901895ECE7F0E060
S1130270808180648083EAE7F0E080818F688083F6
S11302800895ECE7F0E09081907F90839081892B32
S11302908083089580917A00806880937A00109218
S11302A0000180917A00806480937A00809100013B
S11302B08823E1F3809178002091790090917A006D
S11302C09F7790937A0090E0922B08950E944101C9
S11302D00C944A010E9441010E944A01BC0180E041
S11302E090E00E94C1082CE63BED4EE052E40E94EF
S11302F09F090E949208CB010895CF92DF92EF925A
S1130300FF92CF93DF93EC0160E074E0681B790BFC
S113031080E090E00E94C1086B017C01BE0180E096
S113032090E00E94C1089B01AC01C701B6010E9484
S113033019089B01AC0160E070E48CE196E40E9432
S1130340190820E030E44CE156E40E9419080E94A8
S1130350570920E030EE46E755E40E9419082FE0E3
S11303603FEC4BE55BE30E94AD079B01AC0160E011
S113037070E080E89FE30E94190823E333E948E82A
S113038053E40E94AC0720E030E040E251E40E94D4
S11303909F090E948B08CB01DF91CF91FF90EF90D2
S11303A0DF90CF9008950E9466010C947D01811521
S11303B024E0920760F43FB3232F227031FDFBCF7A
S11303C092BD81BDF89A80B5FB01808301C022E013
S11303D0822F0895EF92FF920F931F93CF93DF9391
S11303E08B01040F151FEB017C01E61AF70AC017F5
S11303F0D10751F0BE01C7018C0F9D1F0E94D70188
S113040021968823A1F301C080E0DF91CF911F9151
S11304100F91FF90EF900895DC01ED91FC911197FD
S113042012962C9181E090E001C0880F2A95EAF79A
S1130430662319F09081892B03C0809590818923CC
S113044080830895FC0190818181613091F018F0DE
S11304506230E9F00895A92FB82F81E090E002807E
S113046002C0880F991F0A94E2F780959E91892310
S11304700CC0A92FB82F81E090E0028002C0880F41
S1130480991F0A94E2F79E91892B8C930895A92FC2
S1130490B82F21E030E0C901028002C0880F991F03
S11304A00A94E2F780959E9189238C93A081B1816F
S11304B0028002C0220F331F0A94E2F720958C9128
S11304C028232C9308951F920F920FB60F92112494
S11304D08F9381E0809366018F910F900FBE0F90F0
S11304E01F90189561E084E091E00E940C0261E0A5
S11304F084E091E00E94220260E081E091E00E94A9
S11305000C0261E081E091E00E9422028CB5806DD2
S11305108CBD8DB581608DBD0895109266018EBD30
S1130520809166018823E1F3089580E00E948D02A2
S11305308EB508950F931F93CF93DF93EC018C0135
S1130540060F171FC017D10721F00E949502899347
S1130550F9CFDF91CF911F910F9108951F920F92C0
S11305600FB60F9211248F938091AD0081E0809398
S113057067018F910F900FBE0F901F9018951F92D7
S11305800F920FB60F9211248F939F93EF93FF93C3
S11305908091B900887F80930701883AD1F040F4B4
S11305A0803859F0803A41F581E08093680122C097
S11305B0883B79F0803CF1F01FC08091BB009091A2
S11305C0F501E091F601F091F701E90FF11D808347
S11305D00BC08091F501E091F601F091F701E80F6D
S11305E0F11D80818093BB008091F5018F5F809322
S11305F0F50102C01092F50180916901882329F068
S11306008091BC0080688093BC00FF91EF919F9122
S11306108F910F900FBE0F901F9018951F920F92FD
S11306200FB60F9211248F939F93EF93FF938091B2
S1130630D900887F80930801883AD1F040F480384B
S113064059F0803A41F581E080936A0122C0883BE9
S113065079F0803CF1F01FC08091DB009091F501AE
S1130660E091F601F091F701E90FF11D80830BC0D1
S11306708091F501E091F601F091F701E80FF11D89
S113068080818093DB008091F5018F5F8093F50179
S113069002C01092F50180916B01882329F08091AA
S11306A0DC0080688093DC00FF91EF919F918F9133
S11306B00F900FBE0F901F9018951F920F920FB6B8
S11306C00F9211248F939F93EF93FF93E091EC018A
S11306D0F091ED018091C600E459FE4F8083E091D2
S11306E0EC01F091ED01E459FE4F80818D3051F41D
S11306F081E080930901E091EC01F091ED01E4596E
S1130700FE4F11828091EC019091ED01019690933E
S1130710ED018093EC01FF91EF919F918F910F90E8
S11307200FBE0F901F9018951F920F920FB60F9245
S113073011248F9381E080930A018F910F900FBE53
S11307400F901F901895442339F02091C000226027
S11307502093C000A8E001C0A0E1B0E09B01AC017F
S11307600E94E00D9B01AC0160E072E18AE790E039
S11307700E94BE0DBA01A9014150510961097109D4
S1130780DB01CA0188279F70AA27BB27892F9A2FCC
S1130790AB2FBB278093C5004093C4008091C10058
S11307A0886D8093C10086E88093C200089590917B
S11307B00A019923E1F310920A018093C600089577
S11307C01F920F920FB60F9211248F939F93AF93A2
S11307D0BF9381E08093EE018091F0019091F1014B
S11307E0A091F201B091F3010196A11DB11D809376
S11307F0F0019093F101A093F201B093F301BF9142
S1130800AF919F918F910F900FBE0F901F901895ED
S113081078949FE088E10FB6F894A89580936000DF
S11308200FBE909360000E94960541E26AEF84E651
S113083093E00E94FF0581E00E94E3064CE050E053
S113084065E672E081E090E00E94EA0141E060E93F
S113085070ED83E090E00E94A30383E291E0909323
S11308600903809308030E94360161E084E191E06A
S11308700E94220260E084E191E00E940C0261E0A7
S113088081E191E00E94220261E081E191E00E9415
S11308900C0261E08EE091E00E94220261E08EE0B1
S11308A091E00E940C0261E08BE091E00E94220240
S11308B060E08BE091E00E940C0261E080E291E054
S11308C00E94220260E080E291E00E940C0261E05A
S11308D08DE191E00E94220260E08DE191E00E94AE
S11308E00C0260E08AE191E00E94220260E087E16C
S11308F091E00E94220281E38093B00081E0809322
S1130900B10091EF94BD85BD809181008860809392
S1130910810082E19AE79093890080938800809116
S11309206F00826080936F00809181008460809367
S113093081008DE391E09F938F930E945B0F0F9052
S11309400F9001E010E083E4E82E81E0F82E94E0BB
S1130950D92E20E8C22ECAE5D1E0A8958FEC97E005
S11309600197F1F700C0000080917102882329F0FB
S11309708150809371028093B40080916402882333
S113098021F081508093640287BD8091EF01882318
S113099021F081508093EF0188BDE0911701F0911F
S11309A0180132978081282F30E0C8010090190186
S11309B002C0880F991F0A94E2F782239323892B9C
S11309C011F4D092EF01E0911A01F0911B013297DA
S11309D08081282F30E0C80100901C0102C0880FDC
S11309E0991F0A94E2F782239323892B11F4D0925E
S11309F064028091EE01882309F44AC080E00E94D9
S1130A00D3019093FA018093F90187E00E946A016F
S1130A109093FE018093FD0186E00E946A01909309
S1130A20FC018093FB01A090F0019090F101809073
S1130A30F2017090F30188E20E94DE05B82E87E28D
S1130A400E94DE057F928F929F92AF921F92BF9277
S1130A501F928F93FF92EF920E945B0F87E20E9496
S1130A60DE05EDB7FEB73A960FB6F894FEBF0FBE9B
S1130A70EDBF803859F441E26AEF84E693E00E94C6
S1130A80FF050E94230781E00E94E3061092EE0115
S1130A900E94C505882309F460CF0E946905FC0102
S1130AA08381823151F0843809F057CFDF93CF939B
S1130AB00E945B0F0F900F9050CF89E1E3E0F2E0CA
S1130AC0A1E4B2E001900D928A95E1F7C09271021F
S1130AD044CF809173029091740208951F920F92F3
S1130AE00FB60F9211248F938091F4018F5F80933E
S1130AF0F4018F910F900FBE0F901F90189561E035
S1130B0081E391E00E940C028FE891E00197F1F7F4
S1130B1000C0000060E081E391E00E940C028FEDD0
S1130B209EE20197F1F700C00000089560E084E3BD
S1130B3091E00E94220261E084E391E00E9422029B
S1130B4061E081E391E00E94220260E087E391E0AA
S1130B500E942202E9E6F0E0808183608083E89AC3
S1130B600E947F050C947202882311F061E001C099
S1130B7060E084E391E00C940C0290E00C948D020C
S1130B800E94950208950C949A028091F40188239E
S1130B9069F00E943807FC019093740280937302F9
S1130BA01092F40181E09681911101C080E00895D2
S1130BB080E00C94B40581E00C94B405CF93C82F65
S1130BC00E94D8058C2F8F770E94BD050E94C00516
S1130BD0C82F0E94DB058C2FCF910895CF93DF930C
S1130BE0D82FC62F0E94D8058D2F80680E94BD057E
S1130BF08C2F0E94BD05DF91CF910C94DB05CF9320
S1130C000E947F0580E10E94DE0564E081E00E948D
S1130C10EE0587E20E94DE056FE88CE30E94EE0594
S1130C2060E38FE60E94EE0565E58AE50E94EE0525
S1130C3060E78CE50E94EE058EE20E94DE056DE21F
S1130C408FE20E94EE0564ED80E30E94EE0568E801
S1130C508EE20E94EE0561E082E00E94EE0560E013
S1130C6083E00E94EE0560E884E00E94EE0560E106
S1130C7085E00E94EE0560E086E00E94EE0560EEED
S1130C8089E10E94EE0560EE8AE10E94EE0560EDC6
S1130C9087E30E94EE0560E08CE20E94EE0564E0CA
S1130CA08DE20E94EE0569ED87E00E94EE0560E0AA
S1130CB088E00E94EE0560E089E00E94EE058DE385
S1130CC00E94DE05C82F62E08DE30E94EE056FE10D
S1130CD081E10E94EE0560E485E20E94EE0560E198
S1130CE081E00E94EE058C2FCF9108956DE58AE591
S1130CF00E94EE056CE78CE50C94EE05813011F44E
S1130D000C94760665E58AE50E94EE0560E78CE5BD
S1130D100C94EE05CF9390913C01981709F451C0BF
S1130D20C82F823091F160F48823B1F1813009F049
S1130D3048C081E00E94DE05837E682F646031C074
S1130D40833091F08430E9F581E00E94DE05837EF2
S1130D50682F6C6081E00E94EE0580913B0188233E
S1130D6019F10E94760620C081E00E94DE05837E90
S1130D70682F606181E00E94EE0580913B01882329
S1130D8099F080E00E947E060FC081E00E94DE059B
S1130D90837E682F686005C081E00E94DE05682FAD
S1130DA0637E81E00E94EE0580913C01882319F066
S1130DB0C0933C0106C087E20E94DE0587FFF4CFA2
S1130DC0F7CFCF91089580933B01811102C06AE16E
S1130DD001C06FE083E10E94EE0580913B01813008
S1130DE039F481E10E94DE058F71682F606603C0CB
S1130DF060913A01606881E10C94EE05CF93DF9332
S1130E00813051F084E20E94DE0590E09195819555
S1130E1091099595879514C061E083E20E94EE05DF
S1130E20C8EED3E083E20E94DE0581FDEBCF21977B
S1130E3029F08AE18A95F1F700C0F4CF89E19CEFAB
S1130E40DF91CF91089560E88AE00E94EE058AE080
S1130E500E94DE0586FFFBCF0895282FFC0180E069
S1130E609E2F921B961718F49191890FF9CF08952C
S1130E70CF93DF9300D000D01F92CDB7DEB788E2C6
S1130E800E94DE0582FF5CC08EE3E3E0F2E0DF0156
S1130E901D928A95E9F761E081E00E94EE050E94C7
S1130EA0D80580E00E94BD0565E070E0CE010196A2
S1130EB00E94C3058981855080937E029A81909314
S1130EC07F029B81909380029C81909381029D81FB
S1130ED090938502883320F088E380937E020AC0D1
S1130EE0811105C0109284020E94DB052BC081E0B1
S1130EF08093840260917E0270E083E092E00E941D
S1130F00C3050E94DB0560917E0283E092E00E94AB
S1130F102D07909185028913E5CF60E485E20E9454
S1130F20EE0560E181E00E94EE0580E00E94FE068D
S1130F30909383028093820283E00E948A0602C017
S1130F40109284028EE792E00F900F900F900F9012
S1130F500F90DF91CF9108955058BB27AA270E9484
S1130F60C4070C9415090E94070938F00E940E0961
S1130F7020F039F49F3F19F426F40C9404090EF47C
S1130F80E095E7FB0C94FE08E92F0E94260958F32C
S1130F90BA17620773078407950720F079F4A6F55A
S1130FA00C9448090EF4E0950B2EBA2FA02D0B01DA
S1130FB0B90190010C01CA01A0011124FF27591B9A
S1130FC099F0593F50F4503E68F11A16F040A22FA0
S1130FD0232F342F4427585FF3CF46953795279511
S1130FE0A795F0405395C9F77EF41F16BA0B620B10
S1130FF0730B840BBAF09150A1F0FF0FBB1F661F57
S1131000771F881FC2F70EC0BA0F621F731F841F99
S113101048F4879577956795B795F7959E3F08F0BF
S1131020B0CF9395880F08F09927EE0F9795879581
S113103008950E942D080C9415090E940E0958F079
S11310400E94070940F029F45F3F29F00C94FE0840
S113105051110C9449090C9404090E94260968F35F
S11310609923B1F3552391F3951B550BBB27AA275D
S113107062177307840738F09F5F5F4F220F331F97
S1131080441FAA1FA9F335D00E2E3AF0E0E832D05F
S113109091505040E695001CCAF72BD0FE2F29D062
S11310A0660F771F881FBB1F261737074807AB0734
S11310B0B0E809F0BB0B802DBF01FF2793585F4FA9
S11310C03AF09E3F510578F00C94FE080C944909BF
S11310D05F3FE4F3983ED4F3869577956795B7958B
S11310E0F7959F5FC9F7880F911D9695879597F996
S11310F00895E1E0660F771F881FBB1F621773070F
S11311008407BA0720F0621B730B840BBA0BEE1F23
S113111088F7E09508950E9492086894B1110C94A0
S1131120490908950E942E0988F09F5798F0B92F15
S11311309927B751B0F0E1F0660F771F881F991F08
S11311401AF0BA95C9F714C0B13091F00E94480959
S1131150B1E008950C944809672F782F8827B85F69
S113116039F0B93FCCF3869577956795B395D9F760
S11311703EF490958095709561957F4F8F4F9F4F6A
S11311800895E89409C097FB3EF490958095709576
S113119061957F4F8F4F9F4F9923A9F0F92F96E9BF
S11311A0BB279395F695879577956795B795F11134
S11311B0F8CFFAF4BB0F11F460FF1BC06F5F7F4FD1
S11311C08F4F9F4F16C0882311F096E911C07723E3
S11311D021F09EE8872F762F05C0662371F096E8EC
S11311E0862F70E060E02AF09A95660F771F881FBB
S11311F0DAF7880F9695879597F9089597F99F6779
S113120080E870E060E008959FEF80EC089500248A
S11312100A941616170618060906089500240A9457
S113122012161306140605060895092E0394000CDD
S113123011F4882352F0BB0F40F4BF2B11F460FF6C
S113124004C06F5F7F4F8F4F9F4F089557FD905895
S1131250440F551F59F05F3F71F04795880F97FB76
S1131260991F61F09F3F79F0879508951216130630
S11312701406551FF2CF4695F1DF08C0161617065F
S11312801806991FF1CF8695710561050894089594
S1131290E894BB2766277727CB0197F9089516F0C2
S11312A00C940C0A0C94040968940C94FE080E9493
S11312B02E09A8F39923C1F3AEF3DF93CF931F93C1
S11312C00F93FF92C92FDD2788232AF02197660FF9
S11312D0771F881FDAF720E030E040E85FEB9FE3F8
S11312E0883920F0803E38F021968F770E94AD0730
S11312F0E4EBF0E004C00E94AD07E1EEF0E00E94F0
S11313001A0A8B01BE01EC01FB2E6F57710975950A
S1131310771F880B990B0E94C30828E132E741E349
S11313205FE30E94B209AF2D9801AE01FF900F91C7
S11313301F91CF91DF910E94C4070C9415090E945C
S1131340B2090C9415090E94070938F00E940E098D
S113135020F0952311F00C94FE080C940409112438
S11313600C9449090E94260970F3959FC1F3950FC7
S113137050E0551F629FF001729FBB27F00DB11D15
S1131380639FAA27F00DB11DAA1F649F6627B00DA5
S1131390A11D661F829F2227B00DA11D621F739F8E
S11313A0B00DA11D621F839FA00D611D221F749F9C
S11313B03327A00D611D231F849F600D211D822FE3
S11313C0762F6A2F11249F5750409AF0F1F088230A
S11313D04AF0EE0FFF1FBB1F661F771F881F915037
S11313E05040A9F79E3F510580F00C94FE080C94E0
S11313F049095F3FE4F3983ED4F386957795679562
S1131400B795F795E7959F5FC1F7FE2B880F911D60
S11314109695879597F908959F3F31F0915020F460
S1131420879577956795B795880F911D96958795BC
S113143097F90895DF93CF931F930F93FF92EF9241
S1131440DF927B018C01689406C0DA2EEF010E94C2
S1131450B209FE01E894A5912591359145915591E4
S1131460A6F3EF010E94C407FE019701A801DA94D4
S113147069F7DF90EF90FF900F911F91CF91DF916B
S11314800895A0E1B0E0E7E4FAE00C94EB0D7C01F0
S11314901B016A01FC0117821682838181FF44C308
S11314A09E012F5F3F4F3901F7019381F10193FDB5
S11314B0859193FF81911F01882309F431C38532FB
S11314C039F493FD859193FF81911F01853239F49D
S11314D0B70190E00E941F0F56016501E5CF10E0AF
S11314E0512C912CFFE1F915D8F08B3279F038F4B6
S11314F0803279F08332A1F4F92DF0612EC08D325F
S113150061F0803369F4292D21602DC0392D3260BA
S1131510932E892D8460982E2AC0E92DE86015C089
S113152097FC2DC020ED280F2A3088F496FE06C0C3
S11315303AE0139F200D1124122F19C08AE0589EFF
S1131540200D1124522EE92DE0629E2E10C08E3201
S113155031F496FCE5C2F92DF0649F2E08C08C3658
S113156021F4292D2068922E02C0883641F4F1011D
S113157093FD859193FF81911F018111B3CF9BEB63
S1131580980F933020F4992D9061805E07C09BE9F9
S1131590980F933008F066C1992D9F7E96FF16E050
S11315A09F73992E853619F49064992E08C0863657
S11315B021F4392F3068932E02C01111115097FE77
S11315C007C01C3350F444244394410E27E00BC05D
S11315D0183038F027E017E005C027E09CE3492ED7
S11315E002C0212F412C560184E0A80EB11CF60143
S11315F06081718182819381042DA3010E94310E47
S11316006C01F981FC87F0FF02C0F3FF06C091FC76
S113161006C092FE06C000E205C00DE203C00BE264
S113162001C000E08C858C7019F001115AC29BC274
S113163097FE10C04C0CFC85F4FF04C08A818133F2
S113164009F44A94141474F528E0241578F588E014
S1131650482E2CC096FC2AC0812F90E08C159D0545
S11316609CF03CEFC3163FEFD30674F0892D8068DD
S1131670982E0AC0E2E0F0E0EC0FFD1FE10FF11D2F
S11316808081803319F411501111F4CF97FE0EC0EC
S113169044244394410E812F90E0C816D9062CF4BB
S11316A01C1904C04424439401C010E097FE06C0F2
S11316B01C141D0434F4C601019605C085E090E0B5
S11316C002C081E090E001110196112331F0212F35
S11316D030E02F5F3F4F820F931F252D30E082179C
S11316E0930714F4581A01C0512C892D897049F4B8
S11316F0552039F0B70180E290E00E941F0F5A9400
S1131700F7CF002329F0B701802F90E00E941F0F2C
S113171093FC09C0552039F0B70180E390E00E94A2
S11317201F0F5A94F7CF97FE4CC04601D7FE02C054
S1131730812C912CC60188199909F301E80FF91F2E
S1131740FE87ED87960124193109388B2F87012FE5
S113175010E01195019511093FEF8316930629F4C2
S1131760B7018EE290E00E941F0FC814D9044CF018
S11317708F8598898815990524F4ED85FE858181E6
S113178001C080E3F1E08F1A91082D853E852F5F1B
S11317903F4F3E872D87801691062CF0B70190E0CD
S11317A00E941F0FD9CFC814D90441F49A819633EB
S11317B020F4953319F43C8534FF81E3B70190E0BC
S11317C04EC08A81813319F09C859F7E9C87B70126
S11317D090E00E941F0F111105C094FC18C085E60B
S11317E090E017C0B7018EE290E00E941F0F1E5FC9
S11317F082E001E0080FF301E80FF11D8081B701D9
S113180090E00E941F0F802F0113F3CFE6CF85E4F1
S113181090E0B7010E941F0FD7FC06C0C114D10489
S113182041F4EC85E4FF05C0D194C194D1088DE264
S113183001C08BE2B70190E00E941F0F80E32AE011
S1131840C216D1042CF08F5FFAE0CF1AD108F7CF7B
S1131850B70190E00E941F0FB701C601C0960E9415
S11318601F0F54C1833631F0833779F0833509F083
S113187056C020C0560132E0A30EB11CF60180818F
S1131880898301E010E0630112C05601F2E0AF0E5B
S1131890B11CF601C080D18096FE03C0612F70E0B8
S11318A002C06FEF7FEFC6010E94140F8C01F92D67
S11318B0FF7714C0560122E0A20EB11CF601C080CD
S11318C0D18096FE03C0612F70E002C06FEF7FEFFE
S11318D0C6010E94090F8C01F92DF0689F2EF3FDBB
S11318E01AC0852D90E008171907A8F4B70180E203
S11318F090E00E941F0F5A94F4CFF60197FC859153
S113190097FE81916F01B70190E00E941F0F511063
S11319105A94015011090115110579F7F7C084365D
S113192011F0893661F5560197FE09C024E0A20E34
S1131930B11CF60160817181828193810AC0F2E059
S1131940AF0EB11CF60160817181072E000C880B6B
S1131950990BF92DFF769F2E97FF09C090958095DE
S1131960709561957F4F8F4F9F4FF0689F2E2AE0AF
S113197030E0A3010E94710FC82EC6183FC0092D84
S1131980853721F40F7E2AE030E01DC0097F8F36B1
S113199091F018F4883559F0C3C0803719F08837AE
S11319A011F0BEC0006104FF09C0046007C094FECA
S11319B008C0066006C028E030E005C020E130E041
S11319C002C020E132E0560107FF09C084E0A80EFE
S11319D0B11CF601608171818281938108C0F2E0BB
S11319E0AF0EB11CF6016081718180E090E0A3012B
S11319F00E94710FC82EC6180F77902E96FE0BC04A
S1131A00092D0E7FC11650F494FE0AC092FC08C042
S1131A10092D0E7E05C0DC2C092D03C0DC2C01C071
S1131A20D12E04FF0DC0FE01EC0DF11D8081803329
S1131A3011F4097E09C002FF06C0D394D39404C0F4
S1131A40802F867809F0D39403FD11C000FF06C0EF
S1131A501C2DD51480F4150D1D190DC0D51458F482
S1131A60B70180E290E00E941F0FD394F7CFD51402
S1131A7010F45D1801C0512C04FF10C0B70180E3BD
S1131A8090E00E941F0F02FF17C001FD03C088E70A
S1131A9090E002C088E590E0B7010CC0802F867802
S1131AA059F001FF02C08BE201C080E207FD8DE224
S1131AB0B70190E00E941F0FC11638F4B70180E30C
S1131AC090E00E941F0F1150F7CFCA94F301EC0D60
S1131AD0F11D8081B70190E00E941F0FC110F5CF66
S1131AE015C0F4E0F51560F584E0581A93FE1FC0A4
S1131AF0011127C02C8523FF2AC00EE011E0392DE7
S1131B003071932EF8018491811124C0552009F479
S1131B10E4CCB70180E290E00E941F0F5A94F6CF04
S1131B20F7018681978126C08FEF9FEF23C0B7010D
S1131B3080E290E00E941F0F5A945110F8CFD8CF42
S1131B40512CB701802F90E00E941F0FD3CF02E1E8
S1131B5011E0D5CF91108052B70190E00E941F0F81
S1131B600F5F1F4FCFCF23E0251510F483E0BDCFC7
S1131B70512CC0CF6096E2E10C94070EA1E21A2E1C
S1131B80AA1BBB1BFD010DC0AA1FBB1FEE1FFF1F1D
S1131B90A217B307E407F50720F0A21BB30BE40B6D
S1131BA0F50B661F771F881F991F1A9469F76095B4
S1131BB07095809590959B01AC01BD01CF0108956E
S1131BC00E94220EA59F900DB49F900DA49F800D9E
S1131BD0911D112408952F923F924F925F926F921C
S1131BE07F928F929F92AF92BF92CF92DF92EF92A9
S1131BF0FF920F931F93CF93DF93CDB7DEB7CA1B2A
S1131C00DB0B0FB6F894DEBF0FBECDBF09942A8854
S1131C10398848885F846E847D848C849B84AA84FC
S1131C20B984C884DF80EE80FD800C811B81AA8189
S1131C30B981CE0FD11D0FB6F894DEBF0FBECDBF54
S1131C40ED010895A29FB001B39FC001A39F700D41
S1131C50811D1124911DB29F700D811D1124911DB0
S1131C600895283008F027E03327DA01990F311D51
S1131C7087FD916000966105710539F432602E5F2D
S1131C803D9330E32A95E1F708959F3F30F0803883
S1131C907105610509F03C5F3C5F3D93913008F0AC
S1131CA08068911DDF93CF931F930F93FF92EF9260
S1131CB0192F987F9695E92F96959695E90FFF270A
S1131CC0E059FE4F99273327EE24FF24A701E701AB
S1131CD005900894079428F4360FE71EF81E491F50
S1131CE0511D660F771F881F991F0694A1F7059051
S1131CF0079428F4E70EF81E491F561FC11D770FDD
S1131D00881F991F661F0694A1F70590079428F46D
S1131D10F80E491F561FC71FD11D880F991F661F34
S1131D20771F0694A1F70590079420F4490F561FD6
S1131D30C71FD81F990F661F771F881F0694A9F71E
S1131D4084911095177041F0D695C795579547958E
S1131D50F794E7941A95C1F7E6E1F1E068941590D9
S1131D60159135916591959105907FE27395E118F0
S1131D70F10A430B560BC90BD009C0F7E10CF11E55
S1131D80431F561FC91FD01D7EF4703311F48A956A
S1131D90E6CFE894015030F0080F0AF40027021748
S1131DA008F4202F2395022F7A3328F079E37D93CA
S1131DB02A95E9F710C07D932A9589F6069497959C
S1131DC06795379517951794E118F10A430B560B4D
S1131DD0C90BD00998F023957E9173957A3308F056
S1131DE070E37C932013B8F77E9170617D9330F09B
S1131DF0839571E37D9370E32A95E1F71124EF90C5
S1131E00FF900F911F91CF91DF91992787FD9095B6
S1131E100895FC010590615070400110D8F7809539
S1131E2090958E0F9F1F0895FC01615070400190A2
S1131E300110D8F7809590958E0F9F1F08950F93EA
S1131E401F93CF93DF93FB01238121FD03C08FEF09
S1131E509FEF2CC022FF16C0468157812481358113
S1131E604217530744F4A081B1819D012F5F3F4F76
S1131E70318320838C93268137812F5F3F4F3783B3
S1131E80268314C08B01EC01FB010084F185E02D55
S1131E900995892BE1F6D80116968D919C91179797
S1131EA0019617969C938E931697CE01DF91CF914E
S1131EB01F910F910895A0E0B0E0E1E6FFE00C94DB
S1131EC0FB0DAE014B5F5F4FFA0161917191AF0160
S1131ED080910803909109030E94410AE2E00C9466
S1131EE0170EFA01AA27283051F1203181F1E89424
S1131EF06F936E7F6E5F7F4F8F4F9F4FAF4FB1E0F9
S1131F003ED0B4E03CD0670F781F891F9A1FA11DF3
S1131F10680F791F8A1F911DA11D6A0F711D811DF4
S1131F20911DA11D20D009F468943F912AE0269FB9
S1131F3011243019305D3193DEF6CF010895462F18
S1131F404770405D4193B3E00FD0C9F7F6CF462FF9
S1131F504F70405D4A3318F0495D31FD4052419362
S1131F6002D0A9F7EACFB4E0A6959795879577951F
S1131F706795BA95C9F700976105710508959B01A6
S1131F80AC010A2E06945795479537952795BA952F
S1131F90C9F7620F731F841F951FA01D0895F8943D
S1051FA0FFCF6D
S1131FA201250005250003F8F801012E00012B008C
S1131FB2062B00052B00032B000725000025000239
S1131FC22500010000000200000000D70300000009
S1131FD2002E00002B00042B000214010152554E66
S1131FE20A0D0052454720525443202530325820CE
S1131FF2253032582025640A0D004750494F2043AA
S109200254524C0A0D00CB
S9030000FC
